{
  "_format": "hh-sol-artifact-1",
  "contractName": "Twitters",
  "sourceName": "contracts/Twitters.sol",
  "abi": [
    {
      "anonymous": false,
      "inputs": [
        {
          "indexed": true,
          "internalType": "uint256",
          "name": "tweetId",
          "type": "uint256"
        },
        {
          "indexed": false,
          "internalType": "uint256",
          "name": "likes",
          "type": "uint256"
        },
        {
          "indexed": false,
          "internalType": "address",
          "name": "publisher",
          "type": "address"
        },
        {
          "indexed": false,
          "internalType": "string",
          "name": "url",
          "type": "string"
        }
      ],
      "name": "TweetCreated",
      "type": "event"
    },
    {
      "inputs": [
        {
          "internalType": "string",
          "name": "_url",
          "type": "string"
        }
      ],
      "name": "createTweet",
      "outputs": [],
      "stateMutability": "nonpayable",
      "type": "function"
    },
    {
      "inputs": [
        {
          "internalType": "string",
          "name": "_userName",
          "type": "string"
        }
      ],
      "name": "createUser",
      "outputs": [],
      "stateMutability": "nonpayable",
      "type": "function"
    },
    {
      "inputs": [],
      "name": "fetchTweets",
      "outputs": [
        {
          "components": [
            {
              "internalType": "uint256",
              "name": "tweetId",
              "type": "uint256"
            },
            {
              "internalType": "uint256",
              "name": "likes",
              "type": "uint256"
            },
            {
              "internalType": "address",
              "name": "publisher",
              "type": "address"
            },
            {
              "internalType": "string",
              "name": "url",
              "type": "string"
            }
          ],
          "internalType": "struct Twitters.Tweet[]",
          "name": "",
          "type": "tuple[]"
        }
      ],
      "stateMutability": "view",
      "type": "function"
    },
    {
      "inputs": [
        {
          "internalType": "address",
          "name": "_followAd",
          "type": "address"
        }
      ],
      "name": "follow",
      "outputs": [],
      "stateMutability": "nonpayable",
      "type": "function"
    },
    {
      "inputs": [],
      "name": "followingView",
      "outputs": [
        {
          "internalType": "address[]",
          "name": "",
          "type": "address[]"
        }
      ],
      "stateMutability": "view",
      "type": "function"
    },
    {
      "inputs": [],
      "name": "isUser",
      "outputs": [
        {
          "internalType": "bool",
          "name": "",
          "type": "bool"
        }
      ],
      "stateMutability": "view",
      "type": "function"
    },
    {
      "inputs": [
        {
          "internalType": "uint256",
          "name": "_tweetId",
          "type": "uint256"
        }
      ],
      "name": "like",
      "outputs": [],
      "stateMutability": "nonpayable",
      "type": "function"
    },
    {
      "inputs": [
        {
          "internalType": "address",
          "name": "_followAd",
          "type": "address"
        }
      ],
      "name": "unfollow",
      "outputs": [],
      "stateMutability": "nonpayable",
      "type": "function"
    },
    {
      "inputs": [
        {
          "internalType": "uint256",
          "name": "_tweetId",
          "type": "uint256"
        }
      ],
      "name": "unlike",
      "outputs": [],
      "stateMutability": "nonpayable",
      "type": "function"
    }
  ],
  "bytecode": "0x608060405234801561001057600080fd5b506001600081905550612596806100286000396000f3fe608060405234801561001057600080fd5b50600436106100935760003560e01c80634dbf27cc116100665780634dbf27cc1461010e578063507ffba51461012a57806374d21ae0146101465780637c9cd2bc14610162578063e82935da1461017e57610093565b8063015a4ead14610098578063208fff68146100b4578063228bf75c146100d25780634c22c119146100f0575b600080fd5b6100b260048036038101906100ad9190611c2a565b61019a565b005b6100bc6106d4565b6040516100c99190611ffe565b60405180910390f35b6100da61079f565b6040516100e79190612020565b60405180910390f35b6100f8610fdc565b6040516101059190612042565b60405180910390f35b61012860048036038101906101239190611c2a565b611036565b005b610144600480360381019061013f9190611c53565b611295565b005b610160600480360381019061015b9190611c94565b6113e4565b005b61017c60048036038101906101779190611c53565b61173b565b005b61019860048036038101906101939190611c94565b6118d9565b005b6000600360003373ffffffffffffffffffffffffffffffffffffffff1673ffffffffffffffffffffffffffffffffffffffff1681526020019081526020016000208054905090506001811015610225576040517f08c379a000000000000000000000000000000000000000000000000000000000815260040161021c9061207d565b60405180910390fd5b600181111561054e5760005b60018261023e9190612286565b8111610548578273ffffffffffffffffffffffffffffffffffffffff16600360003373ffffffffffffffffffffffffffffffffffffffff1673ffffffffffffffffffffffffffffffffffffffff16815260200190815260200160002082815481106102d2577f4e487b7100000000000000000000000000000000000000000000000000000000600052603260045260246000fd5b9060005260206000200160009054906101000a900473ffffffffffffffffffffffffffffffffffffffff1673ffffffffffffffffffffffffffffffffffffffff16141561053557600360003373ffffffffffffffffffffffffffffffffffffffff1673ffffffffffffffffffffffffffffffffffffffff1681526020019081526020016000206001836103659190612286565b8154811061039c577f4e487b7100000000000000000000000000000000000000000000000000000000600052603260045260246000fd5b9060005260206000200160009054906101000a900473ffffffffffffffffffffffffffffffffffffffff16600360003373ffffffffffffffffffffffffffffffffffffffff1673ffffffffffffffffffffffffffffffffffffffff168152602001908152602001600020828154811061043e577f4e487b7100000000000000000000000000000000000000000000000000000000600052603260045260246000fd5b9060005260206000200160006101000a81548173ffffffffffffffffffffffffffffffffffffffff021916908373ffffffffffffffffffffffffffffffffffffffff160217905550600360003373ffffffffffffffffffffffffffffffffffffffff1673ffffffffffffffffffffffffffffffffffffffff1681526020019081526020016000208054806104fb577f4e487b7100000000000000000000000000000000000000000000000000000000600052603160045260246000fd5b6001900381819060005260206000200160006101000a81549073ffffffffffffffffffffffffffffffffffffffff02191690559055610548565b8080610540906123a7565b915050610231565b506106d0565b8173ffffffffffffffffffffffffffffffffffffffff16600360003373ffffffffffffffffffffffffffffffffffffffff1673ffffffffffffffffffffffffffffffffffffffff1681526020019081526020016000206000815481106105dd577f4e487b7100000000000000000000000000000000000000000000000000000000600052603260045260246000fd5b9060005260206000200160009054906101000a900473ffffffffffffffffffffffffffffffffffffffff1673ffffffffffffffffffffffffffffffffffffffff1614156106cf57600360003373ffffffffffffffffffffffffffffffffffffffff1673ffffffffffffffffffffffffffffffffffffffff168152602001908152602001600020805480610699577f4e487b7100000000000000000000000000000000000000000000000000000000600052603160045260246000fd5b6001900381819060005260206000200160006101000a81549073ffffffffffffffffffffffffffffffffffffffff021916905590555b5b5050565b6060600360003373ffffffffffffffffffffffffffffffffffffffff1673ffffffffffffffffffffffffffffffffffffffff16815260200190815260200160002080548060200260200160405190810160405280929190818152602001828054801561079557602002820191906000526020600020905b8160009054906101000a900473ffffffffffffffffffffffffffffffffffffffff1673ffffffffffffffffffffffffffffffffffffffff168152602001906001019080831161074b575b5050505050905090565b606060006107ad6001611a93565b905060008060005b838110156109e5573373ffffffffffffffffffffffffffffffffffffffff16600560006001846107e59190612230565b815260200190815260200160002060020160009054906101000a900473ffffffffffffffffffffffffffffffffffffffff1673ffffffffffffffffffffffffffffffffffffffff16141561084657828061083e906123a7565b9350506109d2565b60005b600360003373ffffffffffffffffffffffffffffffffffffffff1673ffffffffffffffffffffffffffffffffffffffff168152602001908152602001600020805490508110156109d057600360003373ffffffffffffffffffffffffffffffffffffffff1673ffffffffffffffffffffffffffffffffffffffff168152602001908152602001600020818154811061090a577f4e487b7100000000000000000000000000000000000000000000000000000000600052603260045260246000fd5b9060005260206000200160009054906101000a900473ffffffffffffffffffffffffffffffffffffffff1673ffffffffffffffffffffffffffffffffffffffff166005600060018561095c9190612230565b815260200190815260200160002060020160009054906101000a900473ffffffffffffffffffffffffffffffffffffffff1673ffffffffffffffffffffffffffffffffffffffff1614156109bd5783806109b5906123a7565b9450506109d0565b80806109c8906123a7565b915050610849565b505b80806109dd906123a7565b9150506107b5565b5060008267ffffffffffffffff811115610a28577f4e487b7100000000000000000000000000000000000000000000000000000000600052604160045260246000fd5b604051908082528060200260200182016040528015610a6157816020015b610a4e611ab7565b815260200190600190039081610a465790505b50905060005b84811015610fd1573373ffffffffffffffffffffffffffffffffffffffff1660056000600184610a979190612230565b815260200190815260200160002060020160009054906101000a900473ffffffffffffffffffffffffffffffffffffffff1673ffffffffffffffffffffffffffffffffffffffff161415610c6f576000600182610af49190612230565b905060006005600083815260200190815260200160002090508060405180608001604052908160008201548152602001600182015481526020016002820160009054906101000a900473ffffffffffffffffffffffffffffffffffffffff1673ffffffffffffffffffffffffffffffffffffffff1673ffffffffffffffffffffffffffffffffffffffff168152602001600382018054610b9390612344565b80601f0160208091040260200160405190810160405280929190818152602001828054610bbf90612344565b8015610c0c5780601f10610be157610100808354040283529160200191610c0c565b820191906000526020600020905b815481529060010190602001808311610bef57829003601f168201915b505050505081525050848681518110610c4e577f4e487b7100000000000000000000000000000000000000000000000000000000600052603260045260246000fd5b6020026020010181905250600185610c669190612230565b94505050610fbe565b6000600360003373ffffffffffffffffffffffffffffffffffffffff1673ffffffffffffffffffffffffffffffffffffffff168152602001908152602001600020805490501115610fbd5760005b600360003373ffffffffffffffffffffffffffffffffffffffff1673ffffffffffffffffffffffffffffffffffffffff16815260200190815260200160002080549050811015610fbb57600360003373ffffffffffffffffffffffffffffffffffffffff1673ffffffffffffffffffffffffffffffffffffffff1681526020019081526020016000208181548110610d7e577f4e487b7100000000000000000000000000000000000000000000000000000000600052603260045260246000fd5b9060005260206000200160009054906101000a900473ffffffffffffffffffffffffffffffffffffffff1673ffffffffffffffffffffffffffffffffffffffff1660056000600185610dd09190612230565b815260200190815260200160002060020160009054906101000a900473ffffffffffffffffffffffffffffffffffffffff1673ffffffffffffffffffffffffffffffffffffffff161415610fa8576000600183610e2d9190612230565b905060006005600083815260200190815260200160002090508060405180608001604052908160008201548152602001600182015481526020016002820160009054906101000a900473ffffffffffffffffffffffffffffffffffffffff1673ffffffffffffffffffffffffffffffffffffffff1673ffffffffffffffffffffffffffffffffffffffff168152602001600382018054610ecc90612344565b80601f0160208091040260200160405190810160405280929190818152602001828054610ef890612344565b8015610f455780601f10610f1a57610100808354040283529160200191610f45565b820191906000526020600020905b815481529060010190602001808311610f2857829003601f168201915b505050505081525050858781518110610f87577f4e487b7100000000000000000000000000000000000000000000000000000000600052603260045260246000fd5b6020026020010181905250600186610f9f9190612230565b95505050610fbb565b8080610fb3906123a7565b915050610cbd565b505b5b8080610fc9906123a7565b915050610a67565b508094505050505090565b600080600660003373ffffffffffffffffffffffffffffffffffffffff1673ffffffffffffffffffffffffffffffffffffffff16815260200190815260200160002054141561102e5760009050611033565b600190505b90565b6000600360003373ffffffffffffffffffffffffffffffffffffffff1673ffffffffffffffffffffffffffffffffffffffff16815260200190815260200160002080549050146111f25760005b600360003373ffffffffffffffffffffffffffffffffffffffff1673ffffffffffffffffffffffffffffffffffffffff168152602001908152602001600020805490508110156111f0578173ffffffffffffffffffffffffffffffffffffffff16600360003373ffffffffffffffffffffffffffffffffffffffff1673ffffffffffffffffffffffffffffffffffffffff168152602001908152602001600020828154811061115b577f4e487b7100000000000000000000000000000000000000000000000000000000600052603260045260246000fd5b9060005260206000200160009054906101000a900473ffffffffffffffffffffffffffffffffffffffff1673ffffffffffffffffffffffffffffffffffffffff1614156111dd576040517f08c379a00000000000000000000000000000000000000000000000000000000081526004016111d49061205d565b60405180910390fd5b80806111e8906123a7565b915050611083565b505b600360003373ffffffffffffffffffffffffffffffffffffffff1673ffffffffffffffffffffffffffffffffffffffff168152602001908152602001600020819080600181540180825580915050600190039060005260206000200160009091909190916101000a81548173ffffffffffffffffffffffffffffffffffffffff021916908373ffffffffffffffffffffffffffffffffffffffff16021790555050565b61129f6002611aa1565b60405180604001604052806112b46002611a93565b815260200182815250600460006112cb6002611a93565b81526020019081526020016000206000820151816000015560208201518160010190805190602001906112ff929190611af5565b50905050600460006113116002611a93565b815260200190815260200160002060000154600660003373ffffffffffffffffffffffffffffffffffffffff1673ffffffffffffffffffffffffffffffffffffffff16815260200190815260200160002081905550336007600460006113776002611a93565b81526020019081526020016000206001016040516113959190611fe7565b908152602001604051809103902060006101000a81548173ffffffffffffffffffffffffffffffffffffffff021916908373ffffffffffffffffffffffffffffffffffffffff16021790555050565b6000600860003373ffffffffffffffffffffffffffffffffffffffff1673ffffffffffffffffffffffffffffffffffffffff1681526020019081526020016000208054905011611469576040517f08c379a0000000000000000000000000000000000000000000000000000000008152600401611460906120bd565b60405180910390fd5b60005b600860003373ffffffffffffffffffffffffffffffffffffffff1673ffffffffffffffffffffffffffffffffffffffff168152602001908152602001600020805490508110156117375781600860003373ffffffffffffffffffffffffffffffffffffffff1673ffffffffffffffffffffffffffffffffffffffff168152602001908152602001600020828154811061152e577f4e487b7100000000000000000000000000000000000000000000000000000000600052603260045260246000fd5b9060005260206000200154141561172457600860003373ffffffffffffffffffffffffffffffffffffffff1673ffffffffffffffffffffffffffffffffffffffff1681526020019081526020016000206001600860003373ffffffffffffffffffffffffffffffffffffffff1673ffffffffffffffffffffffffffffffffffffffff168152602001908152602001600020805490506115cd9190612286565b81548110611604577f4e487b7100000000000000000000000000000000000000000000000000000000600052603260045260246000fd5b9060005260206000200154600860003373ffffffffffffffffffffffffffffffffffffffff1673ffffffffffffffffffffffffffffffffffffffff1681526020019081526020016000208281548110611686577f4e487b7100000000000000000000000000000000000000000000000000000000600052603260045260246000fd5b9060005260206000200181905550600860003373ffffffffffffffffffffffffffffffffffffffff1673ffffffffffffffffffffffffffffffffffffffff168152602001908152602001600020805480611709577f4e487b7100000000000000000000000000000000000000000000000000000000600052603160045260246000fd5b60019003818190600052602060002001600090559055611737565b808061172f906123a7565b91505061146c565b5050565b6117456001611aa1565b604051806080016040528061175a6001611a93565b8152602001600081526020013373ffffffffffffffffffffffffffffffffffffffff16815260200182815250600560006117946001611a93565b8152602001908152602001600020600082015181600001556020820151816001015560408201518160020160006101000a81548173ffffffffffffffffffffffffffffffffffffffff021916908373ffffffffffffffffffffffffffffffffffffffff1602179055506060820151816003019080519060200190611819929190611af5565b509050506005600061182b6001611a93565b8152602001908152602001600020600001547f83af0c791bf8a2da81f4b1aea892856c710799b1678cbbfd2cd64f0e2dbb105c6005600061186c6001611a93565b8152602001908152602001600020600101546005600061188c6001611a93565b815260200190815260200160002060020160009054906101000a900473ffffffffffffffffffffffffffffffffffffffff16846040516118ce939291906120dd565b60405180910390a250565b60005b600860003373ffffffffffffffffffffffffffffffffffffffff1673ffffffffffffffffffffffffffffffffffffffff168152602001908152602001600020805490508110156119fd5781600860003373ffffffffffffffffffffffffffffffffffffffff1673ffffffffffffffffffffffffffffffffffffffff168152602001908152602001600020828154811061199e577f4e487b7100000000000000000000000000000000000000000000000000000000600052603260045260246000fd5b906000526020600020015414156119ea576040517f08c379a00000000000000000000000000000000000000000000000000000000081526004016119e19061209d565b60405180910390fd5b80806119f5906123a7565b9150506118dc565b50600860003373ffffffffffffffffffffffffffffffffffffffff1673ffffffffffffffffffffffffffffffffffffffff168152602001908152602001600020819080600181540180825580915050600190039060005260206000200160009091909190915055600560008281526020019081526020016000206001016000815480929190611a8b906123a7565b919050555050565b600081600001549050919050565b6001816000016000828254019250508190555050565b60405180608001604052806000815260200160008152602001600073ffffffffffffffffffffffffffffffffffffffff168152602001606081525090565b828054611b0190612344565b90600052602060002090601f016020900481019282611b235760008555611b6a565b82601f10611b3c57805160ff1916838001178555611b6a565b82800160010185558215611b6a579182015b82811115611b69578251825591602001919060010190611b4e565b5b509050611b779190611b7b565b5090565b5b80821115611b94576000816000905550600101611b7c565b5090565b6000611bab611ba684612140565b61211b565b905082815260208101848484011115611bc357600080fd5b611bce848285612302565b509392505050565b600081359050611be581612532565b92915050565b600082601f830112611bfc57600080fd5b8135611c0c848260208601611b98565b91505092915050565b600081359050611c2481612549565b92915050565b600060208284031215611c3c57600080fd5b6000611c4a84828501611bd6565b91505092915050565b600060208284031215611c6557600080fd5b600082013567ffffffffffffffff811115611c7f57600080fd5b611c8b84828501611beb565b91505092915050565b600060208284031215611ca657600080fd5b6000611cb484828501611c15565b91505092915050565b6000611cc98383611ce9565b60208301905092915050565b6000611ce18383611f66565b905092915050565b611cf2816122ba565b82525050565b611d01816122ba565b82525050565b6000611d12826121a6565b611d1c81856121e1565b9350611d2783612171565b8060005b83811015611d58578151611d3f8882611cbd565b9750611d4a836121c7565b925050600181019050611d2b565b5085935050505092915050565b6000611d70826121b1565b611d7a81856121f2565b935083602082028501611d8c85612181565b8060005b85811015611dc85784840389528151611da98582611cd5565b9450611db4836121d4565b925060208a01995050600181019050611d90565b50829750879550505050505092915050565b611de3816122cc565b82525050565b6000611df4826121bc565b611dfe8185612203565b9350611e0e818560208601612311565b611e178161247d565b840191505092915050565b6000611e2d826121bc565b611e378185612214565b9350611e47818560208601612311565b611e508161247d565b840191505092915050565b60008154611e6881612344565b611e728186612225565b94506001821660008114611e8d5760018114611e9e57611ed1565b60ff19831686528186019350611ed1565b611ea785612191565b60005b83811015611ec957815481890152600182019150602081019050611eaa565b838801955050505b50505092915050565b6000611ee7601183612214565b9150611ef28261248e565b602082019050919050565b6000611f0a601b83612214565b9150611f15826124b7565b602082019050919050565b6000611f2d600d83612214565b9150611f38826124e0565b602082019050919050565b6000611f50600c83612214565b9150611f5b82612509565b602082019050919050565b6000608083016000830151611f7e6000860182611fc9565b506020830151611f916020860182611fc9565b506040830151611fa46040860182611ce9565b5060608301518482036060860152611fbc8282611de9565b9150508091505092915050565b611fd2816122f8565b82525050565b611fe1816122f8565b82525050565b6000611ff38284611e5b565b915081905092915050565b600060208201905081810360008301526120188184611d07565b905092915050565b6000602082019050818103600083015261203a8184611d65565b905092915050565b60006020820190506120576000830184611dda565b92915050565b6000602082019050818103600083015261207681611eda565b9050919050565b6000602082019050818103600083015261209681611efd565b9050919050565b600060208201905081810360008301526120b681611f20565b9050919050565b600060208201905081810360008301526120d681611f43565b9050919050565b60006060820190506120f26000830186611fd8565b6120ff6020830185611cf8565b81810360408301526121118184611e22565b9050949350505050565b6000612125612136565b90506121318282612376565b919050565b6000604051905090565b600067ffffffffffffffff82111561215b5761215a61244e565b5b6121648261247d565b9050602081019050919050565b6000819050602082019050919050565b6000819050602082019050919050565b60008190508160005260206000209050919050565b600081519050919050565b600081519050919050565b600081519050919050565b6000602082019050919050565b6000602082019050919050565b600082825260208201905092915050565b600082825260208201905092915050565b600082825260208201905092915050565b600082825260208201905092915050565b600081905092915050565b600061223b826122f8565b9150612246836122f8565b9250827fffffffffffffffffffffffffffffffffffffffffffffffffffffffffffffffff0382111561227b5761227a6123f0565b5b828201905092915050565b6000612291826122f8565b915061229c836122f8565b9250828210156122af576122ae6123f0565b5b828203905092915050565b60006122c5826122d8565b9050919050565b60008115159050919050565b600073ffffffffffffffffffffffffffffffffffffffff82169050919050565b6000819050919050565b82818337600083830152505050565b60005b8381101561232f578082015181840152602081019050612314565b8381111561233e576000848401525b50505050565b6000600282049050600182168061235c57607f821691505b602082108114156123705761236f61241f565b5b50919050565b61237f8261247d565b810181811067ffffffffffffffff8211171561239e5761239d61244e565b5b80604052505050565b60006123b2826122f8565b91507fffffffffffffffffffffffffffffffffffffffffffffffffffffffffffffffff8214156123e5576123e46123f0565b5b600182019050919050565b7f4e487b7100000000000000000000000000000000000000000000000000000000600052601160045260246000fd5b7f4e487b7100000000000000000000000000000000000000000000000000000000600052602260045260246000fd5b7f4e487b7100000000000000000000000000000000000000000000000000000000600052604160045260246000fd5b6000601f19601f8301169050919050565b7f416c726561647920666f6c6c6f77696e67000000000000000000000000000000600082015250565b7f596f7520646f6e7420666f6c6c6f7720616e7920616464726573730000000000600082015250565b7f416c7265616479206c696b656400000000000000000000000000000000000000600082015250565b7f4e6f206c696b6573207965740000000000000000000000000000000000000000600082015250565b61253b816122ba565b811461254657600080fd5b50565b612552816122f8565b811461255d57600080fd5b5056fea2646970667358221220cbe71e5aec1eb66f19547f8d0057e6cdeb1952e43af8151cd322978dacb91dbf64736f6c63430008040033",
  "linkReferences": {},
  "deployedLinkReferences": {}
}