{
  "_format": "hh-sol-artifact-1",
  "contractName": "Twitters",
  "sourceName": "contracts/Twitters.sol",
  "abi": [
    {
      "anonymous": false,
      "inputs": [
        {
          "indexed": true,
          "internalType": "uint256",
          "name": "tweetId",
          "type": "uint256"
        },
        {
          "indexed": false,
          "internalType": "uint256",
          "name": "likes",
          "type": "uint256"
        },
        {
          "indexed": false,
          "internalType": "address",
          "name": "publisher",
          "type": "address"
        },
        {
          "indexed": false,
          "internalType": "string",
          "name": "url",
          "type": "string"
        }
      ],
      "name": "TweetCreated",
      "type": "event"
    },
    {
      "inputs": [
        {
          "internalType": "address",
          "name": "",
          "type": "address"
        }
      ],
      "name": "addToId",
      "outputs": [
        {
          "internalType": "uint256",
          "name": "",
          "type": "uint256"
        }
      ],
      "stateMutability": "view",
      "type": "function"
    },
    {
      "inputs": [
        {
          "internalType": "string",
          "name": "_url",
          "type": "string"
        }
      ],
      "name": "createTweet",
      "outputs": [],
      "stateMutability": "nonpayable",
      "type": "function"
    },
    {
      "inputs": [
        {
          "internalType": "string",
          "name": "_userName",
          "type": "string"
        }
      ],
      "name": "createUser",
      "outputs": [],
      "stateMutability": "nonpayable",
      "type": "function"
    },
    {
      "inputs": [],
      "name": "fetchTweets",
      "outputs": [
        {
          "components": [
            {
              "internalType": "uint256",
              "name": "tweetId",
              "type": "uint256"
            },
            {
              "internalType": "uint256",
              "name": "likes",
              "type": "uint256"
            },
            {
              "internalType": "address",
              "name": "publisher",
              "type": "address"
            },
            {
              "internalType": "string",
              "name": "url",
              "type": "string"
            }
          ],
          "internalType": "struct Twitters.Tweet[]",
          "name": "",
          "type": "tuple[]"
        }
      ],
      "stateMutability": "view",
      "type": "function"
    },
    {
      "inputs": [
        {
          "internalType": "address",
          "name": "_userAd",
          "type": "address"
        }
      ],
      "name": "fetchUserTweets",
      "outputs": [
        {
          "components": [
            {
              "internalType": "uint256",
              "name": "tweetId",
              "type": "uint256"
            },
            {
              "internalType": "uint256",
              "name": "likes",
              "type": "uint256"
            },
            {
              "internalType": "address",
              "name": "publisher",
              "type": "address"
            },
            {
              "internalType": "string",
              "name": "url",
              "type": "string"
            }
          ],
          "internalType": "struct Twitters.Tweet[]",
          "name": "",
          "type": "tuple[]"
        }
      ],
      "stateMutability": "view",
      "type": "function"
    },
    {
      "inputs": [
        {
          "internalType": "address",
          "name": "_followAd",
          "type": "address"
        }
      ],
      "name": "follow",
      "outputs": [],
      "stateMutability": "nonpayable",
      "type": "function"
    },
    {
      "inputs": [],
      "name": "followingView",
      "outputs": [
        {
          "internalType": "address[]",
          "name": "",
          "type": "address[]"
        }
      ],
      "stateMutability": "view",
      "type": "function"
    },
    {
      "inputs": [
        {
          "internalType": "uint256",
          "name": "_tweetId",
          "type": "uint256"
        }
      ],
      "name": "getUrl",
      "outputs": [
        {
          "internalType": "string",
          "name": "",
          "type": "string"
        }
      ],
      "stateMutability": "view",
      "type": "function"
    },
    {
      "inputs": [
        {
          "internalType": "uint256",
          "name": "",
          "type": "uint256"
        }
      ],
      "name": "idToUser",
      "outputs": [
        {
          "internalType": "uint256",
          "name": "userId",
          "type": "uint256"
        },
        {
          "internalType": "string",
          "name": "userName",
          "type": "string"
        },
        {
          "internalType": "address",
          "name": "userAd",
          "type": "address"
        }
      ],
      "stateMutability": "view",
      "type": "function"
    },
    {
      "inputs": [
        {
          "internalType": "address",
          "name": "_userAd",
          "type": "address"
        }
      ],
      "name": "isFollowed",
      "outputs": [
        {
          "internalType": "bool",
          "name": "",
          "type": "bool"
        }
      ],
      "stateMutability": "view",
      "type": "function"
    },
    {
      "inputs": [],
      "name": "isUser",
      "outputs": [
        {
          "internalType": "bool",
          "name": "",
          "type": "bool"
        }
      ],
      "stateMutability": "view",
      "type": "function"
    },
    {
      "inputs": [
        {
          "internalType": "uint256",
          "name": "_tweetId",
          "type": "uint256"
        }
      ],
      "name": "like",
      "outputs": [],
      "stateMutability": "nonpayable",
      "type": "function"
    },
    {
      "inputs": [
        {
          "internalType": "address",
          "name": "_followAd",
          "type": "address"
        }
      ],
      "name": "unfollow",
      "outputs": [],
      "stateMutability": "nonpayable",
      "type": "function"
    },
    {
      "inputs": [
        {
          "internalType": "uint256",
          "name": "_tweetId",
          "type": "uint256"
        }
      ],
      "name": "unlike",
      "outputs": [],
      "stateMutability": "nonpayable",
      "type": "function"
    },
    {
      "inputs": [],
      "name": "userLength",
      "outputs": [
        {
          "internalType": "uint256",
          "name": "",
          "type": "uint256"
        }
      ],
      "stateMutability": "view",
      "type": "function"
    }
  ],
  "bytecode": "0x608060405234801561001057600080fd5b506001600081905550612e8f806100286000396000f3fe608060405234801561001057600080fd5b50600436106100f45760003560e01c8063507ffba51161009757806385604d891161006657806385604d891461025d5780638dc22cba1461028d578063b74b185f146102bf578063e82935da146102ef576100f4565b8063507ffba5146101d957806374d21ae0146101f55780637c9cd2bc1461021157806384cb531a1461022d576100f4565b8063228bf75c116100d3578063228bf75c14610163578063256da24f146101815780634c22c1191461019f5780634dbf27cc146101bd576100f4565b806266ddf7146100f9578063015a4ead14610129578063208fff6814610145575b600080fd5b610113600480360381019061010e919061247e565b61030b565b6040516101209190612874565b60405180910390f35b610143600480360381019061013e919061247e565b610667565b005b61014d610ba1565b60405161015a9190612852565b60405180910390f35b61016b610c6c565b6040516101789190612874565b60405180910390f35b6101896114a9565b6040516101969190612953565b60405180910390f35b6101a76114ba565b6040516101b49190612896565b60405180910390f35b6101d760048036038101906101d2919061247e565b611514565b005b6101f360048036038101906101ee91906124a7565b611773565b005b61020f600480360381019061020a91906124e8565b611925565b005b61022b600480360381019061022691906124a7565b611ca8565b005b6102476004803603810190610242919061247e565b611e46565b6040516102549190612896565b60405180910390f35b610277600480360381019061027291906124e8565b611f95565b60405161028491906128b1565b60405180910390f35b6102a760048036038101906102a291906124e8565b612043565b6040516102b6939291906129ac565b60405180910390f35b6102d960048036038101906102d4919061247e565b612115565b6040516102e69190612953565b60405180910390f35b610309600480360381019061030491906124e8565b61212d565b005b6060600061031960016122e7565b905060008060005b838110156103c1578573ffffffffffffffffffffffffffffffffffffffff16600560006001846103519190612aff565b815260200190815260200160002060020160009054906101000a900473ffffffffffffffffffffffffffffffffffffffff1673ffffffffffffffffffffffffffffffffffffffff1614156103ae5782806103aa90612ca0565b9350505b80806103b990612ca0565b915050610321565b5060008267ffffffffffffffff811115610404577f4e487b7100000000000000000000000000000000000000000000000000000000600052604160045260246000fd5b60405190808252806020026020018201604052801561043d57816020015b61042a61230b565b8152602001906001900390816104225790505b50905060005b8481101561065a578673ffffffffffffffffffffffffffffffffffffffff16600560006001846104739190612aff565b815260200190815260200160002060020160009054906101000a900473ffffffffffffffffffffffffffffffffffffffff1673ffffffffffffffffffffffffffffffffffffffff1614156106475760006001826104d09190612aff565b905060006005600083815260200190815260200160002090508060405180608001604052908160008201548152602001600182015481526020016002820160009054906101000a900473ffffffffffffffffffffffffffffffffffffffff1673ffffffffffffffffffffffffffffffffffffffff1673ffffffffffffffffffffffffffffffffffffffff16815260200160038201805461056f90612c3d565b80601f016020809104026020016040519081016040528092919081815260200182805461059b90612c3d565b80156105e85780601f106105bd576101008083540402835291602001916105e8565b820191906000526020600020905b8154815290600101906020018083116105cb57829003601f168201915b50505050508152505084868151811061062a577f4e487b7100000000000000000000000000000000000000000000000000000000600052603260045260246000fd5b60200260200101819052506001856106429190612aff565b945050505b808061065290612ca0565b915050610443565b5080945050505050919050565b6000600360003373ffffffffffffffffffffffffffffffffffffffff1673ffffffffffffffffffffffffffffffffffffffff16815260200190815260200160002080549050905060018110156106f2576040517f08c379a00000000000000000000000000000000000000000000000000000000081526004016106e9906128f3565b60405180910390fd5b6001811115610a1b5760005b60018261070b9190612b55565b8111610a15578273ffffffffffffffffffffffffffffffffffffffff16600360003373ffffffffffffffffffffffffffffffffffffffff1673ffffffffffffffffffffffffffffffffffffffff168152602001908152602001600020828154811061079f577f4e487b7100000000000000000000000000000000000000000000000000000000600052603260045260246000fd5b9060005260206000200160009054906101000a900473ffffffffffffffffffffffffffffffffffffffff1673ffffffffffffffffffffffffffffffffffffffff161415610a0257600360003373ffffffffffffffffffffffffffffffffffffffff1673ffffffffffffffffffffffffffffffffffffffff1681526020019081526020016000206001836108329190612b55565b81548110610869577f4e487b7100000000000000000000000000000000000000000000000000000000600052603260045260246000fd5b9060005260206000200160009054906101000a900473ffffffffffffffffffffffffffffffffffffffff16600360003373ffffffffffffffffffffffffffffffffffffffff1673ffffffffffffffffffffffffffffffffffffffff168152602001908152602001600020828154811061090b577f4e487b7100000000000000000000000000000000000000000000000000000000600052603260045260246000fd5b9060005260206000200160006101000a81548173ffffffffffffffffffffffffffffffffffffffff021916908373ffffffffffffffffffffffffffffffffffffffff160217905550600360003373ffffffffffffffffffffffffffffffffffffffff1673ffffffffffffffffffffffffffffffffffffffff1681526020019081526020016000208054806109c8577f4e487b7100000000000000000000000000000000000000000000000000000000600052603160045260246000fd5b6001900381819060005260206000200160006101000a81549073ffffffffffffffffffffffffffffffffffffffff02191690559055610a15565b8080610a0d90612ca0565b9150506106fe565b50610b9d565b8173ffffffffffffffffffffffffffffffffffffffff16600360003373ffffffffffffffffffffffffffffffffffffffff1673ffffffffffffffffffffffffffffffffffffffff168152602001908152602001600020600081548110610aaa577f4e487b7100000000000000000000000000000000000000000000000000000000600052603260045260246000fd5b9060005260206000200160009054906101000a900473ffffffffffffffffffffffffffffffffffffffff1673ffffffffffffffffffffffffffffffffffffffff161415610b9c57600360003373ffffffffffffffffffffffffffffffffffffffff1673ffffffffffffffffffffffffffffffffffffffff168152602001908152602001600020805480610b66577f4e487b7100000000000000000000000000000000000000000000000000000000600052603160045260246000fd5b6001900381819060005260206000200160006101000a81549073ffffffffffffffffffffffffffffffffffffffff021916905590555b5b5050565b6060600360003373ffffffffffffffffffffffffffffffffffffffff1673ffffffffffffffffffffffffffffffffffffffff168152602001908152602001600020805480602002602001604051908101604052809291908181526020018280548015610c6257602002820191906000526020600020905b8160009054906101000a900473ffffffffffffffffffffffffffffffffffffffff1673ffffffffffffffffffffffffffffffffffffffff1681526020019060010190808311610c18575b5050505050905090565b60606000610c7a60016122e7565b905060008060005b83811015610eb2573373ffffffffffffffffffffffffffffffffffffffff1660056000600184610cb29190612aff565b815260200190815260200160002060020160009054906101000a900473ffffffffffffffffffffffffffffffffffffffff1673ffffffffffffffffffffffffffffffffffffffff161415610d13578280610d0b90612ca0565b935050610e9f565b60005b600360003373ffffffffffffffffffffffffffffffffffffffff1673ffffffffffffffffffffffffffffffffffffffff16815260200190815260200160002080549050811015610e9d57600360003373ffffffffffffffffffffffffffffffffffffffff1673ffffffffffffffffffffffffffffffffffffffff1681526020019081526020016000208181548110610dd7577f4e487b7100000000000000000000000000000000000000000000000000000000600052603260045260246000fd5b9060005260206000200160009054906101000a900473ffffffffffffffffffffffffffffffffffffffff1673ffffffffffffffffffffffffffffffffffffffff1660056000600185610e299190612aff565b815260200190815260200160002060020160009054906101000a900473ffffffffffffffffffffffffffffffffffffffff1673ffffffffffffffffffffffffffffffffffffffff161415610e8a578380610e8290612ca0565b945050610e9d565b8080610e9590612ca0565b915050610d16565b505b8080610eaa90612ca0565b915050610c82565b5060008267ffffffffffffffff811115610ef5577f4e487b7100000000000000000000000000000000000000000000000000000000600052604160045260246000fd5b604051908082528060200260200182016040528015610f2e57816020015b610f1b61230b565b815260200190600190039081610f135790505b50905060005b8481101561149e573373ffffffffffffffffffffffffffffffffffffffff1660056000600184610f649190612aff565b815260200190815260200160002060020160009054906101000a900473ffffffffffffffffffffffffffffffffffffffff1673ffffffffffffffffffffffffffffffffffffffff16141561113c576000600182610fc19190612aff565b905060006005600083815260200190815260200160002090508060405180608001604052908160008201548152602001600182015481526020016002820160009054906101000a900473ffffffffffffffffffffffffffffffffffffffff1673ffffffffffffffffffffffffffffffffffffffff1673ffffffffffffffffffffffffffffffffffffffff16815260200160038201805461106090612c3d565b80601f016020809104026020016040519081016040528092919081815260200182805461108c90612c3d565b80156110d95780601f106110ae576101008083540402835291602001916110d9565b820191906000526020600020905b8154815290600101906020018083116110bc57829003601f168201915b50505050508152505084868151811061111b577f4e487b7100000000000000000000000000000000000000000000000000000000600052603260045260246000fd5b60200260200101819052506001856111339190612aff565b9450505061148b565b6000600360003373ffffffffffffffffffffffffffffffffffffffff1673ffffffffffffffffffffffffffffffffffffffff16815260200190815260200160002080549050111561148a5760005b600360003373ffffffffffffffffffffffffffffffffffffffff1673ffffffffffffffffffffffffffffffffffffffff1681526020019081526020016000208054905081101561148857600360003373ffffffffffffffffffffffffffffffffffffffff1673ffffffffffffffffffffffffffffffffffffffff168152602001908152602001600020818154811061124b577f4e487b7100000000000000000000000000000000000000000000000000000000600052603260045260246000fd5b9060005260206000200160009054906101000a900473ffffffffffffffffffffffffffffffffffffffff1673ffffffffffffffffffffffffffffffffffffffff166005600060018561129d9190612aff565b815260200190815260200160002060020160009054906101000a900473ffffffffffffffffffffffffffffffffffffffff1673ffffffffffffffffffffffffffffffffffffffff1614156114755760006001836112fa9190612aff565b905060006005600083815260200190815260200160002090508060405180608001604052908160008201548152602001600182015481526020016002820160009054906101000a900473ffffffffffffffffffffffffffffffffffffffff1673ffffffffffffffffffffffffffffffffffffffff1673ffffffffffffffffffffffffffffffffffffffff16815260200160038201805461139990612c3d565b80601f01602080910402602001604051908101604052809291908181526020018280546113c590612c3d565b80156114125780601f106113e757610100808354040283529160200191611412565b820191906000526020600020905b8154815290600101906020018083116113f557829003601f168201915b505050505081525050858781518110611454577f4e487b7100000000000000000000000000000000000000000000000000000000600052603260045260246000fd5b602002602001018190525060018661146c9190612aff565b95505050611488565b808061148090612ca0565b91505061118a565b505b5b808061149690612ca0565b915050610f34565b508094505050505090565b60006114b560026122e7565b905090565b600080600660003373ffffffffffffffffffffffffffffffffffffffff1673ffffffffffffffffffffffffffffffffffffffff16815260200190815260200160002054141561150c5760009050611511565b600190505b90565b6000600360003373ffffffffffffffffffffffffffffffffffffffff1673ffffffffffffffffffffffffffffffffffffffff16815260200190815260200160002080549050146116d05760005b600360003373ffffffffffffffffffffffffffffffffffffffff1673ffffffffffffffffffffffffffffffffffffffff168152602001908152602001600020805490508110156116ce578173ffffffffffffffffffffffffffffffffffffffff16600360003373ffffffffffffffffffffffffffffffffffffffff1673ffffffffffffffffffffffffffffffffffffffff1681526020019081526020016000208281548110611639577f4e487b7100000000000000000000000000000000000000000000000000000000600052603260045260246000fd5b9060005260206000200160009054906101000a900473ffffffffffffffffffffffffffffffffffffffff1673ffffffffffffffffffffffffffffffffffffffff1614156116bb576040517f08c379a00000000000000000000000000000000000000000000000000000000081526004016116b2906128d3565b60405180910390fd5b80806116c690612ca0565b915050611561565b505b600360003373ffffffffffffffffffffffffffffffffffffffff1673ffffffffffffffffffffffffffffffffffffffff168152602001908152602001600020819080600181540180825580915050600190039060005260206000200160009091909190916101000a81548173ffffffffffffffffffffffffffffffffffffffff021916908373ffffffffffffffffffffffffffffffffffffffff16021790555050565b61177d60026122f5565b604051806060016040528061179260026122e7565b81526020018281526020013373ffffffffffffffffffffffffffffffffffffffff16815250600460006117c560026122e7565b81526020019081526020016000206000820151816000015560208201518160010190805190602001906117f9929190612349565b5060408201518160020160006101000a81548173ffffffffffffffffffffffffffffffffffffffff021916908373ffffffffffffffffffffffffffffffffffffffff1602179055509050506004600061185260026122e7565b815260200190815260200160002060000154600660003373ffffffffffffffffffffffffffffffffffffffff1673ffffffffffffffffffffffffffffffffffffffff16815260200190815260200160002081905550336007600460006118b860026122e7565b81526020019081526020016000206001016040516118d6919061283b565b908152602001604051809103902060006101000a81548173ffffffffffffffffffffffffffffffffffffffff021916908373ffffffffffffffffffffffffffffffffffffffff16021790555050565b6000600860003373ffffffffffffffffffffffffffffffffffffffff1673ffffffffffffffffffffffffffffffffffffffff16815260200190815260200160002080549050116119aa576040517f08c379a00000000000000000000000000000000000000000000000000000000081526004016119a190612933565b60405180910390fd5b60005b600860003373ffffffffffffffffffffffffffffffffffffffff1673ffffffffffffffffffffffffffffffffffffffff16815260200190815260200160002080549050811015611ca45781600860003373ffffffffffffffffffffffffffffffffffffffff1673ffffffffffffffffffffffffffffffffffffffff1681526020019081526020016000208281548110611a6f577f4e487b7100000000000000000000000000000000000000000000000000000000600052603260045260246000fd5b90600052602060002001541415611c9157600860003373ffffffffffffffffffffffffffffffffffffffff1673ffffffffffffffffffffffffffffffffffffffff1681526020019081526020016000206001600860003373ffffffffffffffffffffffffffffffffffffffff1673ffffffffffffffffffffffffffffffffffffffff16815260200190815260200160002080549050611b0e9190612b55565b81548110611b45577f4e487b7100000000000000000000000000000000000000000000000000000000600052603260045260246000fd5b9060005260206000200154600860003373ffffffffffffffffffffffffffffffffffffffff1673ffffffffffffffffffffffffffffffffffffffff1681526020019081526020016000208281548110611bc7577f4e487b7100000000000000000000000000000000000000000000000000000000600052603260045260246000fd5b9060005260206000200181905550600860003373ffffffffffffffffffffffffffffffffffffffff1673ffffffffffffffffffffffffffffffffffffffff168152602001908152602001600020805480611c4a577f4e487b7100000000000000000000000000000000000000000000000000000000600052603160045260246000fd5b60019003818190600052602060002001600090559055600560008381526020019081526020016000206001016000815480929190611c8790612c13565b9190505550611ca4565b8080611c9c90612ca0565b9150506119ad565b5050565b611cb260016122f5565b6040518060800160405280611cc760016122e7565b8152602001600081526020013373ffffffffffffffffffffffffffffffffffffffff1681526020018281525060056000611d0160016122e7565b8152602001908152602001600020600082015181600001556020820151816001015560408201518160020160006101000a81548173ffffffffffffffffffffffffffffffffffffffff021916908373ffffffffffffffffffffffffffffffffffffffff1602179055506060820151816003019080519060200190611d86929190612349565b5090505060056000611d9860016122e7565b8152602001908152602001600020600001547f83af0c791bf8a2da81f4b1aea892856c710799b1678cbbfd2cd64f0e2dbb105c60056000611dd960016122e7565b81526020019081526020016000206001015460056000611df960016122e7565b815260200190815260200160002060020160009054906101000a900473ffffffffffffffffffffffffffffffffffffffff1684604051611e3b9392919061296e565b60405180910390a250565b600080600090505b600360003373ffffffffffffffffffffffffffffffffffffffff1673ffffffffffffffffffffffffffffffffffffffff16815260200190815260200160002080549050811015611f8a578273ffffffffffffffffffffffffffffffffffffffff16600360003373ffffffffffffffffffffffffffffffffffffffff1673ffffffffffffffffffffffffffffffffffffffff1681526020019081526020016000208281548110611f26577f4e487b7100000000000000000000000000000000000000000000000000000000600052603260045260246000fd5b9060005260206000200160009054906101000a900473ffffffffffffffffffffffffffffffffffffffff1673ffffffffffffffffffffffffffffffffffffffff161415611f77576001915050611f90565b8080611f8290612ca0565b915050611e4e565b50600090505b919050565b60606000600560008481526020019081526020016000206003018054611fba90612c3d565b80601f0160208091040260200160405190810160405280929190818152602001828054611fe690612c3d565b80156120335780601f1061200857610100808354040283529160200191612033565b820191906000526020600020905b81548152906001019060200180831161201657829003601f168201915b5050505050905080915050919050565b600460205280600052604060002060009150905080600001549080600101805461206c90612c3d565b80601f016020809104026020016040519081016040528092919081815260200182805461209890612c3d565b80156120e55780601f106120ba576101008083540402835291602001916120e5565b820191906000526020600020905b8154815290600101906020018083116120c857829003601f168201915b5050505050908060020160009054906101000a900473ffffffffffffffffffffffffffffffffffffffff16905083565b60066020528060005260406000206000915090505481565b60005b600860003373ffffffffffffffffffffffffffffffffffffffff1673ffffffffffffffffffffffffffffffffffffffff168152602001908152602001600020805490508110156122515781600860003373ffffffffffffffffffffffffffffffffffffffff1673ffffffffffffffffffffffffffffffffffffffff16815260200190815260200160002082815481106121f2577f4e487b7100000000000000000000000000000000000000000000000000000000600052603260045260246000fd5b9060005260206000200154141561223e576040517f08c379a000000000000000000000000000000000000000000000000000000000815260040161223590612913565b60405180910390fd5b808061224990612ca0565b915050612130565b50600860003373ffffffffffffffffffffffffffffffffffffffff1673ffffffffffffffffffffffffffffffffffffffff1681526020019081526020016000208190806001815401808255809150506001900390600052602060002001600090919091909150556005600082815260200190815260200160002060010160008154809291906122df90612ca0565b919050555050565b600081600001549050919050565b6001816000016000828254019250508190555050565b60405180608001604052806000815260200160008152602001600073ffffffffffffffffffffffffffffffffffffffff168152602001606081525090565b82805461235590612c3d565b90600052602060002090601f01602090048101928261237757600085556123be565b82601f1061239057805160ff19168380011785556123be565b828001600101855582156123be579182015b828111156123bd5782518255916020019190600101906123a2565b5b5090506123cb91906123cf565b5090565b5b808211156123e85760008160009055506001016123d0565b5090565b60006123ff6123fa84612a0f565b6129ea565b90508281526020810184848401111561241757600080fd5b612422848285612bd1565b509392505050565b60008135905061243981612e2b565b92915050565b600082601f83011261245057600080fd5b81356124608482602086016123ec565b91505092915050565b60008135905061247881612e42565b92915050565b60006020828403121561249057600080fd5b600061249e8482850161242a565b91505092915050565b6000602082840312156124b957600080fd5b600082013567ffffffffffffffff8111156124d357600080fd5b6124df8482850161243f565b91505092915050565b6000602082840312156124fa57600080fd5b600061250884828501612469565b91505092915050565b600061251d838361253d565b60208301905092915050565b600061253583836127ba565b905092915050565b61254681612b89565b82525050565b61255581612b89565b82525050565b600061256682612a75565b6125708185612ab0565b935061257b83612a40565b8060005b838110156125ac5781516125938882612511565b975061259e83612a96565b92505060018101905061257f565b5085935050505092915050565b60006125c482612a80565b6125ce8185612ac1565b9350836020820285016125e085612a50565b8060005b8581101561261c57848403895281516125fd8582612529565b945061260883612aa3565b925060208a019950506001810190506125e4565b50829750879550505050505092915050565b61263781612b9b565b82525050565b600061264882612a8b565b6126528185612ad2565b9350612662818560208601612be0565b61266b81612d76565b840191505092915050565b600061268182612a8b565b61268b8185612ae3565b935061269b818560208601612be0565b6126a481612d76565b840191505092915050565b600081546126bc81612c3d565b6126c68186612af4565b945060018216600081146126e157600181146126f257612725565b60ff19831686528186019350612725565b6126fb85612a60565b60005b8381101561271d578154818901526001820191506020810190506126fe565b838801955050505b50505092915050565b600061273b601183612ae3565b915061274682612d87565b602082019050919050565b600061275e601b83612ae3565b915061276982612db0565b602082019050919050565b6000612781600d83612ae3565b915061278c82612dd9565b602082019050919050565b60006127a4600c83612ae3565b91506127af82612e02565b602082019050919050565b60006080830160008301516127d2600086018261281d565b5060208301516127e5602086018261281d565b5060408301516127f8604086018261253d565b5060608301518482036060860152612810828261263d565b9150508091505092915050565b61282681612bc7565b82525050565b61283581612bc7565b82525050565b600061284782846126af565b915081905092915050565b6000602082019050818103600083015261286c818461255b565b905092915050565b6000602082019050818103600083015261288e81846125b9565b905092915050565b60006020820190506128ab600083018461262e565b92915050565b600060208201905081810360008301526128cb8184612676565b905092915050565b600060208201905081810360008301526128ec8161272e565b9050919050565b6000602082019050818103600083015261290c81612751565b9050919050565b6000602082019050818103600083015261292c81612774565b9050919050565b6000602082019050818103600083015261294c81612797565b9050919050565b6000602082019050612968600083018461282c565b92915050565b6000606082019050612983600083018661282c565b612990602083018561254c565b81810360408301526129a28184612676565b9050949350505050565b60006060820190506129c1600083018661282c565b81810360208301526129d38185612676565b90506129e2604083018461254c565b949350505050565b60006129f4612a05565b9050612a008282612c6f565b919050565b6000604051905090565b600067ffffffffffffffff821115612a2a57612a29612d47565b5b612a3382612d76565b9050602081019050919050565b6000819050602082019050919050565b6000819050602082019050919050565b60008190508160005260206000209050919050565b600081519050919050565b600081519050919050565b600081519050919050565b6000602082019050919050565b6000602082019050919050565b600082825260208201905092915050565b600082825260208201905092915050565b600082825260208201905092915050565b600082825260208201905092915050565b600081905092915050565b6000612b0a82612bc7565b9150612b1583612bc7565b9250827fffffffffffffffffffffffffffffffffffffffffffffffffffffffffffffffff03821115612b4a57612b49612ce9565b5b828201905092915050565b6000612b6082612bc7565b9150612b6b83612bc7565b925082821015612b7e57612b7d612ce9565b5b828203905092915050565b6000612b9482612ba7565b9050919050565b60008115159050919050565b600073ffffffffffffffffffffffffffffffffffffffff82169050919050565b6000819050919050565b82818337600083830152505050565b60005b83811015612bfe578082015181840152602081019050612be3565b83811115612c0d576000848401525b50505050565b6000612c1e82612bc7565b91506000821415612c3257612c31612ce9565b5b600182039050919050565b60006002820490506001821680612c5557607f821691505b60208210811415612c6957612c68612d18565b5b50919050565b612c7882612d76565b810181811067ffffffffffffffff82111715612c9757612c96612d47565b5b80604052505050565b6000612cab82612bc7565b91507fffffffffffffffffffffffffffffffffffffffffffffffffffffffffffffffff821415612cde57612cdd612ce9565b5b600182019050919050565b7f4e487b7100000000000000000000000000000000000000000000000000000000600052601160045260246000fd5b7f4e487b7100000000000000000000000000000000000000000000000000000000600052602260045260246000fd5b7f4e487b7100000000000000000000000000000000000000000000000000000000600052604160045260246000fd5b6000601f19601f8301169050919050565b7f416c726561647920666f6c6c6f77696e67000000000000000000000000000000600082015250565b7f596f7520646f6e7420666f6c6c6f7720616e7920616464726573730000000000600082015250565b7f416c7265616479206c696b656400000000000000000000000000000000000000600082015250565b7f4e6f206c696b6573207965740000000000000000000000000000000000000000600082015250565b612e3481612b89565b8114612e3f57600080fd5b50565b612e4b81612bc7565b8114612e5657600080fd5b5056fea2646970667358221220ee38956ad0bc4382179d42ab4fc2e42328ac3fc49f14c5eca482bdc46023365c64736f6c63430008040033",
  "linkReferences": {},
  "deployedLinkReferences": {}
}