{
  "_format": "hh-sol-artifact-1",
  "contractName": "Twitters",
  "sourceName": "contracts/Twitters.sol",
  "abi": [
    {
      "anonymous": false,
      "inputs": [
        {
          "indexed": true,
          "internalType": "uint256",
          "name": "tweetId",
          "type": "uint256"
        },
        {
          "indexed": false,
          "internalType": "uint256",
          "name": "likes",
          "type": "uint256"
        },
        {
          "indexed": false,
          "internalType": "address",
          "name": "publisher",
          "type": "address"
        },
        {
          "indexed": false,
          "internalType": "string",
          "name": "url",
          "type": "string"
        }
      ],
      "name": "TweetCreated",
      "type": "event"
    },
    {
      "inputs": [
        {
          "internalType": "string",
          "name": "_url",
          "type": "string"
        }
      ],
      "name": "createTweet",
      "outputs": [],
      "stateMutability": "nonpayable",
      "type": "function"
    },
    {
      "inputs": [
        {
          "internalType": "string",
          "name": "_userName",
          "type": "string"
        }
      ],
      "name": "createUser",
      "outputs": [],
      "stateMutability": "nonpayable",
      "type": "function"
    },
    {
      "inputs": [],
      "name": "fetchTweets",
      "outputs": [
        {
          "components": [
            {
              "internalType": "uint256",
              "name": "tweetId",
              "type": "uint256"
            },
            {
              "internalType": "uint256",
              "name": "likes",
              "type": "uint256"
            },
            {
              "internalType": "address",
              "name": "publisher",
              "type": "address"
            },
            {
              "internalType": "string",
              "name": "url",
              "type": "string"
            }
          ],
          "internalType": "struct Twitters.Tweet[]",
          "name": "",
          "type": "tuple[]"
        }
      ],
      "stateMutability": "view",
      "type": "function"
    },
    {
      "inputs": [
        {
          "internalType": "address",
          "name": "_followAd",
          "type": "address"
        }
      ],
      "name": "follow",
      "outputs": [],
      "stateMutability": "nonpayable",
      "type": "function"
    },
    {
      "inputs": [],
      "name": "followingView",
      "outputs": [
        {
          "internalType": "address[]",
          "name": "",
          "type": "address[]"
        }
      ],
      "stateMutability": "view",
      "type": "function"
    },
    {
      "inputs": [
        {
          "internalType": "uint256",
          "name": "_tweetId",
          "type": "uint256"
        }
      ],
      "name": "getUrl",
      "outputs": [
        {
          "internalType": "string",
          "name": "",
          "type": "string"
        }
      ],
      "stateMutability": "view",
      "type": "function"
    },
    {
      "inputs": [],
      "name": "isUser",
      "outputs": [
        {
          "internalType": "bool",
          "name": "",
          "type": "bool"
        }
      ],
      "stateMutability": "view",
      "type": "function"
    },
    {
      "inputs": [
        {
          "internalType": "uint256",
          "name": "_tweetId",
          "type": "uint256"
        }
      ],
      "name": "like",
      "outputs": [],
      "stateMutability": "nonpayable",
      "type": "function"
    },
    {
      "inputs": [
        {
          "internalType": "address",
          "name": "_followAd",
          "type": "address"
        }
      ],
      "name": "unfollow",
      "outputs": [],
      "stateMutability": "nonpayable",
      "type": "function"
    },
    {
      "inputs": [
        {
          "internalType": "uint256",
          "name": "_tweetId",
          "type": "uint256"
        }
      ],
      "name": "unlike",
      "outputs": [],
      "stateMutability": "nonpayable",
      "type": "function"
    }
  ],
  "bytecode": "0x608060405234801561001057600080fd5b5060016000819055506126ef806100286000396000f3fe608060405234801561001057600080fd5b506004361061009e5760003560e01c8063507ffba511610066578063507ffba51461013557806374d21ae0146101515780637c9cd2bc1461016d57806385604d8914610189578063e82935da146101b95761009e565b8063015a4ead146100a3578063208fff68146100bf578063228bf75c146100dd5780634c22c119146100fb5780634dbf27cc14610119575b600080fd5b6100bd60048036038101906100b89190611d37565b6101d5565b005b6100c761070f565b6040516100d4919061210b565b60405180910390f35b6100e56107da565b6040516100f2919061212d565b60405180910390f35b61010361100f565b604051610110919061214f565b60405180910390f35b610133600480360381019061012e9190611d37565b611069565b005b61014f600480360381019061014a9190611d60565b6112c8565b005b61016b60048036038101906101669190611da1565b611417565b005b61018760048036038101906101829190611d60565b61179a565b005b6101a3600480360381019061019e9190611da1565b611938565b6040516101b0919061216a565b60405180910390f35b6101d360048036038101906101ce9190611da1565b6119e6565b005b6000600360003373ffffffffffffffffffffffffffffffffffffffff1673ffffffffffffffffffffffffffffffffffffffff1681526020019081526020016000208054905090506001811015610260576040517f08c379a0000000000000000000000000000000000000000000000000000000008152600401610257906121ac565b60405180910390fd5b60018111156105895760005b60018261027991906123b5565b8111610583578273ffffffffffffffffffffffffffffffffffffffff16600360003373ffffffffffffffffffffffffffffffffffffffff1673ffffffffffffffffffffffffffffffffffffffff168152602001908152602001600020828154811061030d577f4e487b7100000000000000000000000000000000000000000000000000000000600052603260045260246000fd5b9060005260206000200160009054906101000a900473ffffffffffffffffffffffffffffffffffffffff1673ffffffffffffffffffffffffffffffffffffffff16141561057057600360003373ffffffffffffffffffffffffffffffffffffffff1673ffffffffffffffffffffffffffffffffffffffff1681526020019081526020016000206001836103a091906123b5565b815481106103d7577f4e487b7100000000000000000000000000000000000000000000000000000000600052603260045260246000fd5b9060005260206000200160009054906101000a900473ffffffffffffffffffffffffffffffffffffffff16600360003373ffffffffffffffffffffffffffffffffffffffff1673ffffffffffffffffffffffffffffffffffffffff1681526020019081526020016000208281548110610479577f4e487b7100000000000000000000000000000000000000000000000000000000600052603260045260246000fd5b9060005260206000200160006101000a81548173ffffffffffffffffffffffffffffffffffffffff021916908373ffffffffffffffffffffffffffffffffffffffff160217905550600360003373ffffffffffffffffffffffffffffffffffffffff1673ffffffffffffffffffffffffffffffffffffffff168152602001908152602001600020805480610536577f4e487b7100000000000000000000000000000000000000000000000000000000600052603160045260246000fd5b6001900381819060005260206000200160006101000a81549073ffffffffffffffffffffffffffffffffffffffff02191690559055610583565b808061057b90612500565b91505061026c565b5061070b565b8173ffffffffffffffffffffffffffffffffffffffff16600360003373ffffffffffffffffffffffffffffffffffffffff1673ffffffffffffffffffffffffffffffffffffffff168152602001908152602001600020600081548110610618577f4e487b7100000000000000000000000000000000000000000000000000000000600052603260045260246000fd5b9060005260206000200160009054906101000a900473ffffffffffffffffffffffffffffffffffffffff1673ffffffffffffffffffffffffffffffffffffffff16141561070a57600360003373ffffffffffffffffffffffffffffffffffffffff1673ffffffffffffffffffffffffffffffffffffffff1681526020019081526020016000208054806106d4577f4e487b7100000000000000000000000000000000000000000000000000000000600052603160045260246000fd5b6001900381819060005260206000200160006101000a81549073ffffffffffffffffffffffffffffffffffffffff021916905590555b5b5050565b6060600360003373ffffffffffffffffffffffffffffffffffffffff1673ffffffffffffffffffffffffffffffffffffffff1681526020019081526020016000208054806020026020016040519081016040528092919081815260200182805480156107d057602002820191906000526020600020905b8160009054906101000a900473ffffffffffffffffffffffffffffffffffffffff1673ffffffffffffffffffffffffffffffffffffffff1681526020019060010190808311610786575b5050505050905090565b606060006107e86001611ba0565b905060008060005b83811015610a1c573373ffffffffffffffffffffffffffffffffffffffff1660056000600184610820919061235f565b815260200190815260200160002060020160009054906101000a900473ffffffffffffffffffffffffffffffffffffffff1673ffffffffffffffffffffffffffffffffffffffff16141561088157828061087990612500565b935050610a09565b60005b600360003373ffffffffffffffffffffffffffffffffffffffff1673ffffffffffffffffffffffffffffffffffffffff16815260200190815260200160002080549050811015610a0757600360003373ffffffffffffffffffffffffffffffffffffffff1673ffffffffffffffffffffffffffffffffffffffff1681526020019081526020016000208181548110610945577f4e487b7100000000000000000000000000000000000000000000000000000000600052603260045260246000fd5b9060005260206000200160009054906101000a900473ffffffffffffffffffffffffffffffffffffffff1673ffffffffffffffffffffffffffffffffffffffff1660056000600185610997919061235f565b815260200190815260200160002060020160009054906101000a900473ffffffffffffffffffffffffffffffffffffffff1673ffffffffffffffffffffffffffffffffffffffff1614156109f45783806109f090612500565b9450505b80806109ff90612500565b915050610884565b505b8080610a1490612500565b9150506107f0565b5060008267ffffffffffffffff811115610a5f577f4e487b7100000000000000000000000000000000000000000000000000000000600052604160045260246000fd5b604051908082528060200260200182016040528015610a9857816020015b610a85611bc4565b815260200190600190039081610a7d5790505b50905060005b84811015611004573373ffffffffffffffffffffffffffffffffffffffff1660056000600184610ace919061235f565b815260200190815260200160002060020160009054906101000a900473ffffffffffffffffffffffffffffffffffffffff1673ffffffffffffffffffffffffffffffffffffffff161415610ca6576000600182610b2b919061235f565b905060006005600083815260200190815260200160002090508060405180608001604052908160008201548152602001600182015481526020016002820160009054906101000a900473ffffffffffffffffffffffffffffffffffffffff1673ffffffffffffffffffffffffffffffffffffffff1673ffffffffffffffffffffffffffffffffffffffff168152602001600382018054610bca9061249d565b80601f0160208091040260200160405190810160405280929190818152602001828054610bf69061249d565b8015610c435780601f10610c1857610100808354040283529160200191610c43565b820191906000526020600020905b815481529060010190602001808311610c2657829003601f168201915b505050505081525050848681518110610c85577f4e487b7100000000000000000000000000000000000000000000000000000000600052603260045260246000fd5b6020026020010181905250600185610c9d919061235f565b94505050610ff1565b6000600360003373ffffffffffffffffffffffffffffffffffffffff1673ffffffffffffffffffffffffffffffffffffffff168152602001908152602001600020805490501115610ff05760005b600360003373ffffffffffffffffffffffffffffffffffffffff1673ffffffffffffffffffffffffffffffffffffffff16815260200190815260200160002080549050811015610fee57600360003373ffffffffffffffffffffffffffffffffffffffff1673ffffffffffffffffffffffffffffffffffffffff1681526020019081526020016000208181548110610db5577f4e487b7100000000000000000000000000000000000000000000000000000000600052603260045260246000fd5b9060005260206000200160009054906101000a900473ffffffffffffffffffffffffffffffffffffffff1673ffffffffffffffffffffffffffffffffffffffff1660056000600185610e07919061235f565b815260200190815260200160002060020160009054906101000a900473ffffffffffffffffffffffffffffffffffffffff1673ffffffffffffffffffffffffffffffffffffffff161415610fdb576000600183610e64919061235f565b905060006005600083815260200190815260200160002090508060405180608001604052908160008201548152602001600182015481526020016002820160009054906101000a900473ffffffffffffffffffffffffffffffffffffffff1673ffffffffffffffffffffffffffffffffffffffff1673ffffffffffffffffffffffffffffffffffffffff168152602001600382018054610f039061249d565b80601f0160208091040260200160405190810160405280929190818152602001828054610f2f9061249d565b8015610f7c5780601f10610f5157610100808354040283529160200191610f7c565b820191906000526020600020905b815481529060010190602001808311610f5f57829003601f168201915b505050505081525050858781518110610fbe577f4e487b7100000000000000000000000000000000000000000000000000000000600052603260045260246000fd5b6020026020010181905250600186610fd6919061235f565b955050505b8080610fe690612500565b915050610cf4565b505b5b8080610ffc90612500565b915050610a9e565b508094505050505090565b600080600660003373ffffffffffffffffffffffffffffffffffffffff1673ffffffffffffffffffffffffffffffffffffffff1681526020019081526020016000205414156110615760009050611066565b600190505b90565b6000600360003373ffffffffffffffffffffffffffffffffffffffff1673ffffffffffffffffffffffffffffffffffffffff16815260200190815260200160002080549050146112255760005b600360003373ffffffffffffffffffffffffffffffffffffffff1673ffffffffffffffffffffffffffffffffffffffff16815260200190815260200160002080549050811015611223578173ffffffffffffffffffffffffffffffffffffffff16600360003373ffffffffffffffffffffffffffffffffffffffff1673ffffffffffffffffffffffffffffffffffffffff168152602001908152602001600020828154811061118e577f4e487b7100000000000000000000000000000000000000000000000000000000600052603260045260246000fd5b9060005260206000200160009054906101000a900473ffffffffffffffffffffffffffffffffffffffff1673ffffffffffffffffffffffffffffffffffffffff161415611210576040517f08c379a00000000000000000000000000000000000000000000000000000000081526004016112079061218c565b60405180910390fd5b808061121b90612500565b9150506110b6565b505b600360003373ffffffffffffffffffffffffffffffffffffffff1673ffffffffffffffffffffffffffffffffffffffff168152602001908152602001600020819080600181540180825580915050600190039060005260206000200160009091909190916101000a81548173ffffffffffffffffffffffffffffffffffffffff021916908373ffffffffffffffffffffffffffffffffffffffff16021790555050565b6112d26002611bae565b60405180604001604052806112e76002611ba0565b815260200182815250600460006112fe6002611ba0565b8152602001908152602001600020600082015181600001556020820151816001019080519060200190611332929190611c02565b50905050600460006113446002611ba0565b815260200190815260200160002060000154600660003373ffffffffffffffffffffffffffffffffffffffff1673ffffffffffffffffffffffffffffffffffffffff16815260200190815260200160002081905550336007600460006113aa6002611ba0565b81526020019081526020016000206001016040516113c891906120f4565b908152602001604051809103902060006101000a81548173ffffffffffffffffffffffffffffffffffffffff021916908373ffffffffffffffffffffffffffffffffffffffff16021790555050565b6000600860003373ffffffffffffffffffffffffffffffffffffffff1673ffffffffffffffffffffffffffffffffffffffff168152602001908152602001600020805490501161149c576040517f08c379a0000000000000000000000000000000000000000000000000000000008152600401611493906121ec565b60405180910390fd5b60005b600860003373ffffffffffffffffffffffffffffffffffffffff1673ffffffffffffffffffffffffffffffffffffffff168152602001908152602001600020805490508110156117965781600860003373ffffffffffffffffffffffffffffffffffffffff1673ffffffffffffffffffffffffffffffffffffffff1681526020019081526020016000208281548110611561577f4e487b7100000000000000000000000000000000000000000000000000000000600052603260045260246000fd5b9060005260206000200154141561178357600860003373ffffffffffffffffffffffffffffffffffffffff1673ffffffffffffffffffffffffffffffffffffffff1681526020019081526020016000206001600860003373ffffffffffffffffffffffffffffffffffffffff1673ffffffffffffffffffffffffffffffffffffffff1681526020019081526020016000208054905061160091906123b5565b81548110611637577f4e487b7100000000000000000000000000000000000000000000000000000000600052603260045260246000fd5b9060005260206000200154600860003373ffffffffffffffffffffffffffffffffffffffff1673ffffffffffffffffffffffffffffffffffffffff16815260200190815260200160002082815481106116b9577f4e487b7100000000000000000000000000000000000000000000000000000000600052603260045260246000fd5b9060005260206000200181905550600860003373ffffffffffffffffffffffffffffffffffffffff1673ffffffffffffffffffffffffffffffffffffffff16815260200190815260200160002080548061173c577f4e487b7100000000000000000000000000000000000000000000000000000000600052603160045260246000fd5b6001900381819060005260206000200160009055905560056000838152602001908152602001600020600101600081548092919061177990612473565b9190505550611796565b808061178e90612500565b91505061149f565b5050565b6117a46001611bae565b60405180608001604052806117b96001611ba0565b8152602001600081526020013373ffffffffffffffffffffffffffffffffffffffff16815260200182815250600560006117f36001611ba0565b8152602001908152602001600020600082015181600001556020820151816001015560408201518160020160006101000a81548173ffffffffffffffffffffffffffffffffffffffff021916908373ffffffffffffffffffffffffffffffffffffffff1602179055506060820151816003019080519060200190611878929190611c02565b509050506005600061188a6001611ba0565b8152602001908152602001600020600001547f83af0c791bf8a2da81f4b1aea892856c710799b1678cbbfd2cd64f0e2dbb105c600560006118cb6001611ba0565b815260200190815260200160002060010154600560006118eb6001611ba0565b815260200190815260200160002060020160009054906101000a900473ffffffffffffffffffffffffffffffffffffffff168460405161192d9392919061220c565b60405180910390a250565b6060600060056000848152602001908152602001600020600301805461195d9061249d565b80601f01602080910402602001604051908101604052809291908181526020018280546119899061249d565b80156119d65780601f106119ab576101008083540402835291602001916119d6565b820191906000526020600020905b8154815290600101906020018083116119b957829003601f168201915b5050505050905080915050919050565b60005b600860003373ffffffffffffffffffffffffffffffffffffffff1673ffffffffffffffffffffffffffffffffffffffff16815260200190815260200160002080549050811015611b0a5781600860003373ffffffffffffffffffffffffffffffffffffffff1673ffffffffffffffffffffffffffffffffffffffff1681526020019081526020016000208281548110611aab577f4e487b7100000000000000000000000000000000000000000000000000000000600052603260045260246000fd5b90600052602060002001541415611af7576040517f08c379a0000000000000000000000000000000000000000000000000000000008152600401611aee906121cc565b60405180910390fd5b8080611b0290612500565b9150506119e9565b50600860003373ffffffffffffffffffffffffffffffffffffffff1673ffffffffffffffffffffffffffffffffffffffff168152602001908152602001600020819080600181540180825580915050600190039060005260206000200160009091909190915055600560008281526020019081526020016000206001016000815480929190611b9890612500565b919050555050565b600081600001549050919050565b6001816000016000828254019250508190555050565b60405180608001604052806000815260200160008152602001600073ffffffffffffffffffffffffffffffffffffffff168152602001606081525090565b828054611c0e9061249d565b90600052602060002090601f016020900481019282611c305760008555611c77565b82601f10611c4957805160ff1916838001178555611c77565b82800160010185558215611c77579182015b82811115611c76578251825591602001919060010190611c5b565b5b509050611c849190611c88565b5090565b5b80821115611ca1576000816000905550600101611c89565b5090565b6000611cb8611cb38461226f565b61224a565b905082815260208101848484011115611cd057600080fd5b611cdb848285612431565b509392505050565b600081359050611cf28161268b565b92915050565b600082601f830112611d0957600080fd5b8135611d19848260208601611ca5565b91505092915050565b600081359050611d31816126a2565b92915050565b600060208284031215611d4957600080fd5b6000611d5784828501611ce3565b91505092915050565b600060208284031215611d7257600080fd5b600082013567ffffffffffffffff811115611d8c57600080fd5b611d9884828501611cf8565b91505092915050565b600060208284031215611db357600080fd5b6000611dc184828501611d22565b91505092915050565b6000611dd68383611df6565b60208301905092915050565b6000611dee8383612073565b905092915050565b611dff816123e9565b82525050565b611e0e816123e9565b82525050565b6000611e1f826122d5565b611e298185612310565b9350611e34836122a0565b8060005b83811015611e65578151611e4c8882611dca565b9750611e57836122f6565b925050600181019050611e38565b5085935050505092915050565b6000611e7d826122e0565b611e878185612321565b935083602082028501611e99856122b0565b8060005b85811015611ed55784840389528151611eb68582611de2565b9450611ec183612303565b925060208a01995050600181019050611e9d565b50829750879550505050505092915050565b611ef0816123fb565b82525050565b6000611f01826122eb565b611f0b8185612332565b9350611f1b818560208601612440565b611f24816125d6565b840191505092915050565b6000611f3a826122eb565b611f448185612343565b9350611f54818560208601612440565b611f5d816125d6565b840191505092915050565b60008154611f758161249d565b611f7f8186612354565b94506001821660008114611f9a5760018114611fab57611fde565b60ff19831686528186019350611fde565b611fb4856122c0565b60005b83811015611fd657815481890152600182019150602081019050611fb7565b838801955050505b50505092915050565b6000611ff4601183612343565b9150611fff826125e7565b602082019050919050565b6000612017601b83612343565b915061202282612610565b602082019050919050565b600061203a600d83612343565b915061204582612639565b602082019050919050565b600061205d600c83612343565b915061206882612662565b602082019050919050565b600060808301600083015161208b60008601826120d6565b50602083015161209e60208601826120d6565b5060408301516120b16040860182611df6565b50606083015184820360608601526120c98282611ef6565b9150508091505092915050565b6120df81612427565b82525050565b6120ee81612427565b82525050565b60006121008284611f68565b915081905092915050565b600060208201905081810360008301526121258184611e14565b905092915050565b600060208201905081810360008301526121478184611e72565b905092915050565b60006020820190506121646000830184611ee7565b92915050565b600060208201905081810360008301526121848184611f2f565b905092915050565b600060208201905081810360008301526121a581611fe7565b9050919050565b600060208201905081810360008301526121c58161200a565b9050919050565b600060208201905081810360008301526121e58161202d565b9050919050565b6000602082019050818103600083015261220581612050565b9050919050565b600060608201905061222160008301866120e5565b61222e6020830185611e05565b81810360408301526122408184611f2f565b9050949350505050565b6000612254612265565b905061226082826124cf565b919050565b6000604051905090565b600067ffffffffffffffff82111561228a576122896125a7565b5b612293826125d6565b9050602081019050919050565b6000819050602082019050919050565b6000819050602082019050919050565b60008190508160005260206000209050919050565b600081519050919050565b600081519050919050565b600081519050919050565b6000602082019050919050565b6000602082019050919050565b600082825260208201905092915050565b600082825260208201905092915050565b600082825260208201905092915050565b600082825260208201905092915050565b600081905092915050565b600061236a82612427565b915061237583612427565b9250827fffffffffffffffffffffffffffffffffffffffffffffffffffffffffffffffff038211156123aa576123a9612549565b5b828201905092915050565b60006123c082612427565b91506123cb83612427565b9250828210156123de576123dd612549565b5b828203905092915050565b60006123f482612407565b9050919050565b60008115159050919050565b600073ffffffffffffffffffffffffffffffffffffffff82169050919050565b6000819050919050565b82818337600083830152505050565b60005b8381101561245e578082015181840152602081019050612443565b8381111561246d576000848401525b50505050565b600061247e82612427565b9150600082141561249257612491612549565b5b600182039050919050565b600060028204905060018216806124b557607f821691505b602082108114156124c9576124c8612578565b5b50919050565b6124d8826125d6565b810181811067ffffffffffffffff821117156124f7576124f66125a7565b5b80604052505050565b600061250b82612427565b91507fffffffffffffffffffffffffffffffffffffffffffffffffffffffffffffffff82141561253e5761253d612549565b5b600182019050919050565b7f4e487b7100000000000000000000000000000000000000000000000000000000600052601160045260246000fd5b7f4e487b7100000000000000000000000000000000000000000000000000000000600052602260045260246000fd5b7f4e487b7100000000000000000000000000000000000000000000000000000000600052604160045260246000fd5b6000601f19601f8301169050919050565b7f416c726561647920666f6c6c6f77696e67000000000000000000000000000000600082015250565b7f596f7520646f6e7420666f6c6c6f7720616e7920616464726573730000000000600082015250565b7f416c7265616479206c696b656400000000000000000000000000000000000000600082015250565b7f4e6f206c696b6573207965740000000000000000000000000000000000000000600082015250565b612694816123e9565b811461269f57600080fd5b50565b6126ab81612427565b81146126b657600080fd5b5056fea2646970667358221220359b83732d53855cd0752f3f0e8a5ca44bf9831b3bc9ca6118c4439c11ce9e4464736f6c63430008040033",
  "linkReferences": {},
  "deployedLinkReferences": {}
}